:020000040000FA
:0600000054EF1CF0120099
:020006001200E6
:0800080084EF0EF01200140E4B
:10001000E66E7EEC1CF0E55212000F0E64EF04F069
:10002000050E64EF04F03EEC04F0DF6ADE52010ED0
:10003000DD6EDBCF00F0100EE76E0018E8AE02D0E8
:10004000E73402D0E750005C3EE2010EDB50010BCA
:10005000E8B08B80E8A08B90010EDB50020BE840EB
:100060007F0BE8B08B82E8A08B92010EDB50040B73
:10007000E840E8403F0BE8B08C86E8A08C96010E83
:10008000DB50080BE840E840E8401F0BE8B08B86E7
:10009000E8A08B96F60EE66E70EC1CF0E55282B886
:1000A00012D0DF2A82BA0FD0DF2A82BC0CD0DF2A1E
:1000B00082BE09D0DF2A010EDBCFF3FFF39EF346A9
:1000C000F3CFDBFFB6D78B908B928C968B9601018A
:1000D0000151DF5C12E0DFCF01F1DFCFE9FFEA6A17
:1000E000E9BEEA68800EE926000EEA22EFCF00F0B2
:1000F000016A00AE07D0016805D090C000F0016A27
:1001000000BE0168B1EC04F002E2E16AE55247D3B7
:10011000B5DBDE6ADD6A060E286E296A93C02DF013
:1001200094C02EF08DEC10F026C0DEFF27C0DDFF5E
:10013000D0DB02E2E16AE55232D3A0DBDE6ADD6A9F
:10014000ADC027F0AEC028F0AFC029F0B0C02AF093
:1001500003EC11F028C0DEFF29C0DDFFBADB02E2AC
:10016000E16AE5521CD3E6DB500EC8DB770E006E69
:100170002F0E34DB010E42DB500EE15C02E2E16A3D
:10018000E5520DD3D7DB100EB9DB6E0E006E2F0ECD
:1001900025DB020E33DB100EE15C02E2E16AE55280
:1001A000FED20001996B9A6B9B6B9C6B9D6B9E6B57
:1001B0009F6BA06BA16BA26BA36BA46BA56BA66BD3
:1001C000A96BAA6BAB6BAC6B916B926B936B946BE3
:1001D000956B966B976B986BBA6BBB6BBC6BBD6B7F
:1001E000BE6BBF6BC06BC16BC26BC36BC46BC56BAB
:1001F000C66BC76BC86BC96B12009CDB70DBB10EA2
:10020000E926000EEA22EF50E66E62EC19F0E552A4
:1002100066DBB50EE926000EEA22EECF00F0EFCF46
:1002200001F0900E286E010E296E00C02DF001C065
:100230002EF08DEC10F0265047DB010EE66E62ECDE
:1002400019F0E552190EE66EDFEC1BF0E5529CD377
:10025000E8EC0AF0CC0E4DDBBE0E4BDB38EC0BF0BD
:100260000101256F38EC0BF00101246F120006DB51
:10027000010125390F0B0001BC6FBD6B0101243951
:10028000F00B0001BA6FBB6BE850BC11BE6FBB51E5
:10029000BD11BF6F1E0ED880BE55000EBF5505E3C1
:1002A000140EBE5D000EBF5904E2DECFBEF0DDCFFE
:1002B000BFF0020EE15C02E2E16AE55270D2010198
:1002C00025A106D02C6A2D6A800E2E6E3D0E50DAC6
:1002D000010125A305D02C6A2D6A2E6A3E0E48DA4C
:1002E000010125A506D02C6A2D6A800E2E6E3E0EC9
:1002F0003FDA010125A705D02C6A2D6A2E6A3F0E30
:1003000037DA2C6A2D6A7A0E2E6E440E18DBFAEC60
:100310000FF003EC11F028C0C6F029C0C7F012009E
:100320000001B951E66EE66AC6C0E6FFC7C0E6FF47
:10033000BEC0E6FFBFC0E6FF5C0E006E2F0E87DA80
:100340000B0EE15E03500001C66BC76BC06BC16B47
:10035000C26BC36B120018DA040EDBCF00F0050E7F
:10036000DBCF01F0D890015004E6100E005C000EC7
:1003700001583EE2E8EC0AF0CC0EBBDA440EB9DAE2
:100380008184010E0001C86FC96BC93504E2C851F0
:100390000808000EC95507E3640E96DA0001C82B61
:1003A000000EC923F2D7819453DF61DFDE500001D4
:1003B000BE25006EDD50BF210001016E00C0DEFFD2
:1003C000DD6E7DDF020EDB500001C625006E030EE0
:1003D000DB50C7210001016E020E00C0DBFF030EDF
:1003E00001C0DBFF040EDB2A050EB6E3DB2AB4D71F
:1003F000DECFBEF0DDCFBFF0100E2D6E2E6ABEC078
:1004000028F0BFC029F067EC10F028C0BEF029C06A
:10041000BFF0020EDBCFC6F0030EDBCFC7F0100E2D
:100420002D6E2E6AC6C028F0C7C029F067EC10F008
:1004300028C0C6F029C0C7F073DF060EE15C02E2F7
:10044000E16AE552ACD1A0D969DA5EEC15F021DAA7
:10045000640E3ADAA7EC1CF02FDA899089927BDFE0
:10046000260EE66E010EE66E040EC8D9480E006E2A
:100470002F0EEDD9050EE15E035000019551961146
:1004800002E1EED917D00BDA04E200507808000E32
:10049000015407E348DA04E63C0E025C000E035800
:1004A00008E234DA03E1ED5001E172DABFD901E389
:1004B000DB2A7FD95DDA4208CBE1FED99D94F29820
:1004C000F29EF29E060EE15C02E2E16AE55267D11D
:1004D00031DA0101300E3A6F310E3B6FD3D9FF088C
:1004E00009E0FE0EDB50420A1FE1FE0EDBCFE6FF05
:1004F000AADF19D0CED93F0EE66E2F0EE66E010EA2
:100500004CDA370EE66E2F0EE66E020E46DA2F0E2E
:10051000E66E2F0EE66E030E40DA270EE66E2F0E05
:10052000E66E040E3ED9E552ADD94608D2E12CD292
:1005300001DA140EE126120EDB6A130EDB6A67D9AC
:1005400072DDF350DF6EFF0EDF5C30E0120EDBCFAA
:1005500000F0130EDBCF01F0D890015004E6110E2D
:10056000005C000E015822E2DF50390803E3300E30
:10057000DF5C07E2410EDF5CE3E1140EE15C3AE28E
:1005800037D0D950010F006EDACF01F0120EDB50D8
:100590000024E96E130EDB50DA20EA6EDFCFEFFFA6
:1005A000120EDB2A130ECCE3DB2ACAD7D950120F66
:1005B000E96EDACFEAFF110EEE1809E1ED5007E11E
:1005C00068D925D9120EDB6A130EDB6AB9D761D957
:1005D000180EE66E2F0EE66E010EDFD9080EE66EDF
:1005E0002F0EE66E020ED9D9C8D9030E07D9A8D7A7
:1005F000E16AE552D4D0C8D891D98992A70EE66EA7
:10060000F00EE66E9AEC1AF0E552E55242D901017D
:10061000310E3A6F300E3B6F640E56D9A7EC1CF0CA
:10062000899000019551961102E11AD917D037D956
:1006300004E200507808000E015407E374D904E680
:100640003C0E025C000E035808E260D903E1ED5055
:1006500001E19ED9EBD801E3DB2AABD889D9430865
:10066000D6E12AD9060EE15C02E2E16AE55297D0B2
:10067000D9CFE6FFE1CFD9FF120EE126100EE66ECC
:10068000E66A200EE66ED950010FE66E000EDA2003
:10069000E66E86EC18F0006E050EE15E0050110E5D
:1006A000DB6A25EC15F093EC14F0BDDCF350DF6E43
:1006B000FF0EDF5C18E0DF50430A0FE0010A08E09C
:1006C000030A01E00FD0DFCFE6FF02DFE5520AD0D8
:1006D000DFCFE6FF2DDFE55205D0DFCFE6FF8BDF72
:1006E000E55200D039D0010EE66EE1EC1AF0E55289
:1006F000F50EE66E2E0EE66E010EE66EE66AA7ECCD
:1007000014F0E552E552E552E552E40EE66E2E0E87
:10071000E66E020EE66EE66AA7EC14F0E552E552CC
:10072000E552E552D30EE66E2E0EE66E030EE66E31
:10073000E66AA7EC14F0E552E552E552E552C20E26
:10074000E66E2E0EE66E040EE66EE66AA7EC14F078
:10075000E552E552E552E552A8D70300120EE15CDE
:1007600002E2E16AE552E16EE552E7CFD9FF1200FD
:10077000E6D811EC0FF027C0C0F028C0C1F029C0A6
:10078000C2F02AC0C3F01200D5D8060EE126DE6AF8
:10079000DD6A020EDB6A030EDB6AC8EF04F0E16E6D
:1007A000F3D0E66EE66AA7EC14F0E552E552E552A6
:1007B0001200C3DC020EF3CFDBFF030EF4CFDBFF2E
:1007C000DECFE6FFDDCFE6FFCEDCE552E552020EDE
:1007D000DBCFE6FF030EDBCFE6FF1200BAD8D9CF9E
:1007E000E6FFDACFE6FFE1EC17F0036E070EE15EFD
:1007F0000350D9CFE6FFDACFE6FF1200E66EE66AD5
:10080000E6EC14F0E552E552E552E5521200100E06
:10081000E66EE66A200EE66EB0D886EC18F0006E42
:10082000050EE15E0050110EDB6A1200A4EC1CF014
:1008300050EC15F0040EDBCFE6FF050EDBCFE6FF34
:10084000DCDCE552E552040EDB2A050E120081D8ED
:10085000260EE66E010EE66EE1EC17F0036E120056
:1008600097C093F098C094F0000EE66EE66A7BDCC9
:10087000E552E552000EE66EE66A12005BD8020E03
:10088000E126120013EC00F0FE0EF3CFDBFFDB508D
:100890001200010EE66EE1EC1AF0E55212009EEC39
:1008A0001CF036DCF3CFDEFFF4CFDDFFDECF00F04F
:1008B000DDCF01F001341200000EE66EE66AD5ECE1
:1008C00019F0E552E5521200E66E34EC1CF0E552E8
:1008D0001200DECF00F0DDCF01F0B1EF04F0FD0E2D
:1008E000DBCFE9FFFE0EDBCFEAFFD890E936EA3630
:1008F0001200E66E0EEC0BF0E5521200E126FD0E42
:10090000DBCFE6FFFE0EDBCFE6FF1200D950040F6F
:10091000E96EDACFEAFF020EEE18120042DC31EC8B
:1009200015F03EEF15F0DECF02F0DDCF03F0D890EA
:1009300003501200D9CFE6FFE1CFD9FF12002F6E8E
:10094000C0C027F0C1C028F0C2C029F0C3C02AF03F
:100950001200016E026A00C0E6FFE66E02C0E6FF0A
:10096000120000C0F3FF01C0F4FF020EE15C1200B0
:1009700009DCE552E55242EF04F0D950010FE66E72
:10098000000EDA20E66E1200E552E7CFD9FF120022
:10099000040EDB6A050EDB6A120003DFE55212006B
:0E09A000010054390000800000004A000000F1
:0209AE0013EC48
:1009B0000AF0FB0EDBCFF3FFDB06F35000090AE081
:1009C00061EC0AF0FA0ECCEC0AF0F3E1011CF1E163
:1009D000010E01D0000E42EF0AF013EC0AF03B0EBC
:1009E000E12402E3E168E652E16E010EDB6A020EE9
:1009F000DB6AF90EDBCFF6FFFA0EDBCFF7FFFB0E5B
:100A0000DBCFF8FF0800F550DF6EDF5002E166EF44
:100A100009F0250EDF5C02E059EF09F0030EDB6AF6
:100A2000040EDB6A050EDB6A060EDB6A070EDB6A64
:100A30007BEC09F02D0EDF5C0CE02B0EDF5C09E097
:100A4000200EDF5C06E0230EDF5C03E0300EDF5C8F
:100A50001AE1DF50300A14E0130A0FE0030A0AE03B
:100A60000B0A05E0060AE4E1030EDB80E1D7030E82
:100A7000DB82DED7030EDB84DBD7030EDB86D8D721
:100A8000030EDB88D5D72A0EDF5C1BE177EC09F07B
:100A9000C5EC09F010E0030EDB8028682968130E0E
:100AA000DBCF2DF0140EDBCF2EF08DEC10F0040E0A
:100AB00026C0DBFF03D0130EAEEC09F07BEC09F08F
:100AC0000BD0090EDB6A1CEC0AF003E090EC0AF094
:100AD000FAD7090EAEEC09F0030EDBB0DB982E0E50
:100AE000DF5C1BE17BEC09F02A0EDF5C0BE177ECAD
:100AF00009F0C5EC09F003E1130E00EC0AF07BEC01
:100B000009F00BD0090EDB6A1CEC0AF003E090EC54
:100B10000AF0FAD7090E00EC0AF0680EDF5C07E174
:100B20007BEC09F0680EDF5C1DE1030E18D0740E3B
:100B3000DF5C17E07A0EDF5C14E0480EDF5C06E055
:100B4000540EDF5C03E05A0EDF5C02E1020E07D0B8
:100B50006C0EDF5C03E06A0EDF5C04E1010E53EC17
:100B60000AF0C9DBDF506E0A01E17FD31E0A01E102
:100B700092D1200A01E18FD13F0A01E149D11A0A3D
:100B800001E146D10D0A01E143D1200A01E140D142
:100B90003A0A01E13DD1200A01E13AD1260A01E1F8
:100BA00035D10D0A01E132D11A0A01E1D9D0200A6A
:100BB0004AE0300A1FE0460A0EE0250A01E083D32E
:100BC000D950F90FE96EFF0EDA20EA6E010EEE5EE3
:100BD000000EEE5AEE5A61EC0AF0250EE66E95DB39
:100BE00003E1011C01E169D35DEC0AF001E26BD382
:100BF000DB2A69D3080EDB6A040EDB50010806E22B
:100C0000040EDB0425EC0AF0DB508BDB080EDB5016
:100C100009E0030EDB50010B05E172DB01E04DD36F
:100C2000080EDB6A64DBEFCFDFFFD5EC0AF003E1EF
:100C3000011C01E142D35DEC0AF001E3DB2A60DB39
:100C400001E141D33AD3070EDB5002080FE1A1ECDA
:100C50000AF0030E68EC0AF00E0EEECFDBFF0F0E6B
:100C6000EECFDBFF100EEECFDBFF20D0F70EDBCF99
:100C700003F0F80EDBCF04F0020E035E000E045A00
:100C8000F70E03C0DBFFF80E04C0DBFF03C0E9FF73
:100C900004C0EAFF58EC0AF0026A0E0E00C0DBFF47
:100CA0000F0E01C0DBFF100E02C0DBFF0E0EDBCF0C
:100CB000E6FF0F0EDBCFE6FF100EDBCFE6FFAEEC5C
:100CC00018F0E552E552E552130E27C0DBFF140E73
:100CD00028C0DBFF060EDB5005E0130E9CEC0AF08B
:100CE00001E26ADBC0EC0AF002E2130E37DB83ECB0
:100CF0000AF006E0040E9CEC0AF002E2050E2EDB80
:100D0000030EDBB005D0FCDA01E0D7D2080EDB6AB7
:100D1000090EDB6A0E0EDBCFF6FF0F0EDBCFF7FFFF
:100D2000100EDBCFF8FF0800F550DF6EDF5014E047
:100D3000C6EC0AF011E2D5EC0AF003E1011C01E176
:100D4000BCD2BBDB01E3DB2A090EDB2AD9500E0F34
:100D5000E96E000ECBDBE7D7D3DA01E1B4D2ADD236
:100D6000C6DA110EEECFDBFF120EEDCFDBFF110E58
:100D7000DBCFE6FF120EDBCFE6FFA0EC18F0E5526A
:100D8000E552130EF3CFDBFF140EF4CFDBFF060E9C
:100D9000DB5004E0130ED0DB01E20EDBC0EC0AF006
:100DA00002E2130EDBDAAFDB05E0040EC5DB02E284
:100DB000050ED4DA030EDBB005D0A2DA01E07DD255
:100DC000080EDB6A090EDB6A110EDBCFE9FF120E9B
:100DD000DBCFEAFFEFCFDFFFDF5014E0D7DB12E21B
:100DE000E4DB03E1011C01E168D267DB01E3DB2AFC
:100DF000090EDB2A110EDB2ADBCFE9FF120EE8E336
:100E0000DB2AE6D77DDA01E15ED257D2030EDB8E14
:100E1000070EDB0410E195DB040E5ADB0A0EEECF61
:100E2000DBFF0B0EEECFDBFF0C0EEECFDBFF0D0E6C
:100E3000EECFDBFF6CD0070EDB5003082CE1030E76
:100E4000DBAE0DD0B2DA020E76DAEFCF00F0016A37
:100E5000026A036A00AE39D00168026835D0F70E25
:100E6000DBCF01F0F80EDBCF02F0020E015E000EC8
:100E7000025AF70E01C0DBFFF80E02C0DBFF01C013
:100E8000E9FF02C0EAFFEFCF00F00A0E00C0DBFF6F
:100E90000B0EDB6A38D0070EDB50020809E1030EA7
:100EA000DBAE04D059DB02AE10D00ED055DB0DD036
:100EB000030EDBAE12D079DA020E3DDAF9DA026AFD
:100EC000036A01AE02D002680368E2DA0C0E02C0C7
:100ED000DBFF0D0E03C0DBFF1AD0F70EDBCF02F0F5
:100EE000F80EDBCF03F0020E025E000E035AF70E7F
:100EF00002C0DBFFF80E03C0DBFF02C0E9FF03C046
:100F0000EAFFD6DAC5DA0C0EDB6A0D0EDB6A060ED6
:100F1000DB5005E1010EF36E050EF3CFDBFF150E7E
:100F2000DB6A160EDB6AD950370F006E000EDA202E
:100F3000016E390E00C0DBFF3A0E01C0DBFF380E38
:100F4000DB6A080EDB6A0A0EAEDADF50780A12E0BE
:100F5000200A10E0280A0CE0200A0AE03F0A06E016
:100F60000D0A02E0200A08E1020E05D0080E03D0A7
:100F7000080EDF26100E97DA030EDBBE02D0DB92DE
:100F8000DB94DB50800B24E08ADAD890030EEB5020
:100F9000000A08E6000EEE5C000EEE58000EEE5859
:100FA000000EEE5815E213DA2B682C682D682E68B7
:100FB0009DEC19F00A0E22C0DBFF0B0E23C0DBFFF5
:100FC0000C0E24C0DBFF0D0E25C0DBFF2D0E08D05C
:100FD000030EDBA202D02B0E03D0DBA408D0200E20
:100FE000F36E170EF3CFDBFF150EDB2A02D0170EC0
:100FF000DB6A050EDB5003E1B7D901E189D0240E8D
:10100000006E390E016E000E026E070EDBCF03F08C
:10101000046A056A066A03C02BF004C02CF005C000
:101020002DF006C02EF0D3D976EC1AF00050222411
:10103000F36E01502320F46E02502420F86EF4CF9A
:10104000F7FFF3CFF6FF0800090EF5CFDBFF580ED0
:10105000DF5C0FE1610EF36E090E7BD90AE3200E0F
:10106000006E090EDBCFE7FF0050E75E090EE7CF09
:10107000DBFF070EDBCF00F0016A026A036A0FDABA
:1010800000C02BF001C02CF002C02DF003C02EF0E8
:10109000EECF26F0EECF27F0EECF28F0EFCF29F0FD
:1010A00076EC1AF029C0EDFF28C0EDFF27C0EDFF58
:1010B00026C0EFFF390EDBCFE9FFDB063A0EDBCFB0
:1010C000EAFF01E2DB06090EDBCFEFFF150EDB2A9C
:1010D0004BD995E1030EDBA61DD06F0EDF5C06E158
:1010E000C1D918E3150EDB285BDA14D0780EDF5C6B
:1010F00009E0580EDF5C06E0620EDF5C03E0420EA2
:10110000DF5C08E1020EF36E160EF3CFDBFF02D0B8
:10111000150EDB6A030EDB50100B0EE0040EDBCF66
:1011200000F0050EDB50D880005406E2060EDB50BE
:1011300003E1040EDB5034DA95D90AE2050EDBCF69
:10114000E7FF150EDB50E75E050EE7CFDBFF02D0B1
:10115000050EDB6A040EDBCF00F0160E45D9D880F1
:10116000005414E2160EDBCFE6FF150EDBCFE6FFD0
:10117000040EDBCFE6FF050EDB50E552E75CE552DF
:10118000D880E754E552D880E7545FD9030EDB508E
:10119000010B0BE1080EDB5008E0B2D801E08DD066
:1011A000080EDB50BED8080EDB6A170EDB5007E0D6
:1011B00088D9170EF1D903E1011C01E17ED0160E8A
:1011C000DB5016E07ED9300EE66E9FD802E1011C9E
:1011D00074E077D9DFCFE6FF20EC19F0E552E55255
:1011E000E552F4CF01F00001F31C02E1011C65E0BF
:1011F000050EDBCF00F0160EDB50D880005409E25C
:10120000050EDBCFE7FF160EDB50E75E050EE7CFDE
:10121000DBFF300EE66E050ECBD94FE1390EDB2A2F
:10122000DBCFE9FF3A0E01E3DB2ADBCFEAFF090E51
:10123000EFCFDBFFDB500EE044D9090EADD902E160
:10124000011C3BE0390EDB2ADBCFE9FF3A0EEDE370
:10125000DB2AEBD755D831E1160EDBCFE6FF080EBF
:10126000C3D8E552E7245DD82ED0070EDB50030A21
:101270001CE0010A14E0030A07E07BD9DBCFEEFF94
:10128000020EDBCFEDFF1FD0F5D8056A03AE02D00A
:10129000046805682CD8BCD805C0EEFF14D0EAD885
:1012A00003BE046824D8B4D80ED063D9DBCFEFFFD7
:1012B0000AD07BD905E1011C03E1F368F46810D082
:1012C000FCD801E3DB2A79D902EF05F0010EDBCF70
:1012D00000F0020EDBCF01F000C0F3FF01C0F4FF0D
:1012E0003B0EE15C02E2E16AE552E16ECBD029D926
:1012F000020E68EF0AF061D90800F550DF6E1200A7
:10130000200EE66E080ED8EF0AF020EC19F0E55238
:10131000E552E552F3CF00F0F4CF01F00001F31CE9
:101320001200006E016AD950010F4DD90050EE260F
:101330000150ED221200045E000E055AF70E04C0A3
:10134000DBFFF80E05C0DBFF04C0E9FF05C0EAFFC4
:101350001200DBCFF4FFF350F45C1200DB50E76EB9
:10136000040EE7CFDBFF12000A0EDBCF00F00B0EFE
:10137000DBCF01F00C0EDBCF02F00D0EDBCF03F064
:1013800000500110021003101200130EEECFDBFF0D
:10139000140EEDCFDBFF130EDBCF00F0140EDBCF0E
:1013A00001F00001800E01141200F70EDBCF04F0F3
:1013B000F80EDBCF05F01200050EDB50E66ED950BB
:1013C000130F01D9E552E750EE6EED6A12000A0ED6
:1013D000DBCF26F00B0EDBCF27F00C0EDBCF28F097
:1013E0000D0EDBCF29F01200DBCFE6FF150EDBCFB1
:1013F000E6FF050EDB50E552E724E552E724120034
:10140000DB50CED8010EF36E060EF3CFDBFF1200D9
:10141000EE50EFCFEAFFE96E02C0EEFF03C0EEFF31
:1014200004C0EEFF1200D9CFE6FFDACFE6FFE1CF2E
:10143000D9FFE2CFDAFF1200DFCFE6FFE66A22EC47
:101440001CF0E552E552F3501200E76E080EE7CFAC
:10145000DBFF1200EECF00F0EECF01F0EFCF02F095
:10146000036A1200050EDBCF00F0150EDB50D880AA
:1014700000541200010EDBCF02F0020EDBCF03F0AE
:10148000046A1200E552E5CFDAFFE7CFD9FF120078
:101490000A0E00C0DBFF0B0E01C0DBFF1200D950AB
:1014A0000A0FE3EF0AF0F36E070EF3CFDBFF120033
:1014B000EECF00F0EFCF01F01200010EDB2A020E9A
:1014C0001200FC0EDBCFE6FFFD0EDBCFE6FF1200C5
:1014D000005E000E015AF70E00C0DBFFF80E01C0DF
:1014E000DBFF00C0E9FF01C0EAFF1200DA20EA6E6C
:1014F000EF2AEECFF6FF000EEF22EECFF7FFEF223E
:10150000EECFF8FF1200040EDBCFE6FF130EDB5028
:10151000E552E75C9ADFDB5004DF060EDB50120079
:10152000090EDB500A0DF350DF24D00FE76E090ED1
:10153000E7CFDBFF7BEF09F0DB50F36E050EA9EF81
:1015400009F0F70EDBCF00F0F80EDBCF01F0120050
:10155000DFCFE6FF85EF09F028DF030EECDE2AEF90
:101560000AF0D7EC04F0E552E552E552E5520009E5
:101570001200BDDEEE50EFCFEAFFE96E010E120061
:10158000130EDB50F36E040EA9EF09F0040EDB50CE
:10159000F36E090EA9EF09F0DBCFE6FF85EF09F046
:1015A000E76E050EE7CFDBFF12008BDFA8EF0AF036
:1015B000DBCFE6FF86DFB1EF0AF0D950F90FE96E15
:1015C000FF0E76EF0AF0E96E000EDA20EA6E1200E6
:1015D000F2EC0EF0020EE126DE6ADD6A93828A9258
:1015E0009392300EE4EC0EF09382180EEDDB8150F6
:1015F000020B020A01E0010E006E016A00BE0168E2
:1016000000C0DEFF01C0DDFFDF50006E020EE15CB6
:1016100002E2E16AE552E16E0050E9D3E3DBE65213
:10162000DF6ADFCF00F0080EE76E0018E8AE02D0E8
:10163000E73402D0E750005C19E28A929392010EDF
:10164000C3DBFE0EDB50010BE8B09382E8A093925F
:10165000050EBADB9382020EB7DBFE0EDB407F0B7A
:10166000E76EFE0EE7CFDBFFDF2ADBD7E552BFD305
:10167000D9CFE6FFE1CFD9FF020EE126DF6A010EE6
:10168000DB6A010EDBCF00F0080EE76E0018E8AE53
:1016900002D0E73402D0E750005C24E28A929392B1
:1016A0000000000093820000000000000000000025
:1016B0000000000000008150020B01E0010EF36EFB
:1016C000010EDB5004E0D890F336E806FCE1F3505D
:1016D000DF10DF6E050EE66E7EEC1CF0E552010EAB
:1016E000DB2ACFD7DF5000D0006E020EE15C02E2B1
:1016F000E16AE552E16E0050E552E7CFD9FF1200F2
:10170000010E00019125916F000E9221926F0A0E39
:1017100091190BE1925109E19EEC1CF0010E0001C0
:10172000956F966BF298F2941200F294DC0EE66ECE
:101730000B0EE66E8CEC1BF0E552E552120089822E
:10174000010E00019725976F000E9821986FF29275
:1017500012009E900001A12B000EA223120042DB7A
:10176000040EE126DE6ADE6ADE6ADD6ADD52DD52E3
:1017700089809E9400019D519E110AE1A551A611F8
:101780000FE104EC1BF0F3CF99F0F4CF9AF00ED0F8
:10179000010E9D190BE19E5109E1A551A61106E12B
:1017A00004EC1BF0F3CF9BF0F4CF9CF000019D2BD9
:1017B000000E9E23010ED8809D55000E9E5507E316
:1017C000010EA51901E0A1D0A65101E09ED0010EA5
:1017D000A56FA66BA1C006F0A2C007F0086A2C682E
:1017E0002D682E6AA1C027F0A2C028F008C029F0F9
:1017F000BAEC10F024C006F025C007F026C008F0AF
:101800009BC009F09CC00AF00B6A24500924036EA7
:1018100025500A20046E26500B20056E99C00CF04E
:101820009AC00DF00E6A0C50035C006E0D50045807
:10183000016E0E500558026E00C09FF001C0A0F06E
:101840000001A92B000EAA239BC0A3F09CC0A4F00A
:101850009BC099F09CC09AF000C028F001C029F00C
:10186000A6DA7A0E2E6E440E2F6EA7EC0FF027C06C
:10187000DEFF28C0DEFF29C0DEFF2AC0DDFFDD520B
:10188000DD52D9CFE9FFDACFEAFFEECF00F0EECF9D
:1018900001F0EECF02F0EFCF03F02C6A2D6A480E74
:1018A0002E6E420E2F6E00C027F001C028F002C03D
:1018B00029F003C02AF032EC11F0010A04E1000122
:1018C000AB2B000EAC2300019D6B9E6B0F0ED880DE
:1018D000A955000EAA5519E2ABC028F0ACC029F0FA
:1018E00066DA700E2E6E410E2F6EA7EC0FF071DAD5
:1018F0002C6A2D6AC80E2E6E420E2F6EFAEC0FF077
:1019000068DAA1EC1CF09BEC1CF0040EE15C02E236
:10191000E16AE552E16E6BD29E9C300E01013A5DA8
:1019200001E023D1310E01013B5D01E01ED1898030
:1019300089EC1CF0F3CF00F0F4CF01F000C028F0E8
:1019400001C029F0FDEC0EF027C004F128C005F11C
:1019500029C006F12AC007F12C6A2D6AA00E2E6E4E
:10196000400E2F6E04C127F005C128F006C129F0F2
:1019700007C12AF0FAEC0FF027C000F028C001F0F0
:1019800029C002F02AC003F02C6AC00E2D6E7F0E13
:101990002E6E440E2F6E00C027F001C028F002C04A
:1019A00029F003C02AF0A7EC0FF027C008F128C0E7
:1019B00009F129C00AF12AC00BF12C6A2D6A400EE8
:1019C0002E6E400E2F6E08C127F009C128F00AC103
:1019D00029F00BC12AF032EC11F0010A01E0C5D068
:1019E000660E2C6E660E2D6E060E2E6E400E2F6E3F
:1019F00008C127F009C128F00AC129F00BC12AF05B
:101A0000A7EC0FF027C008F128C009F129C00AF19E
:101A10002AC00BF108C1E6FF09C1E6FF0AC1E6FFD3
:101A20000BC1E6FF16EC12F0E552E552E552E55225
:101A300026C01CF127C01DF128C01EF129C01FF1CE
:101A40000101730E206FDC0E216F1B0E226F3C0E06
:101A5000236F20C12CF021C12DF022C12EF023C113
:101A60002FF01CC127F01DC128F01EC129F01FC195
:101A70002AF0A7EC0FF027C01CF128C01DF129C0E7
:101A80001EF12AC01FF11CC127F01DC128F01EC184
:101A900029F01FC12AF003EC11F028C010F129C071
:101AA00011F110C128F011C129F0FDEC0EF027C092
:101AB00004F028C005F029C006F02AC007F004C0D1
:101AC0002CF005C02DF006C02EF007C02FF01CC171
:101AD00027F01DC128F01EC129F01FC12AF010EC0B
:101AE0000FF027C000F028C001F029C002F02AC082
:101AF00003F02C6A2D6A200E2E6E410E2F6E00C050
:101B000027F001C028F002C029F003C02AF0FAEC47
:101B10000FF003EC11F028C012F129C013F110C12D
:101B2000E6FF11C1E6FFA40E006E2F0E016E026AE1
:101B300000C0E6FF01C0E6FF02C0E6FF140EE66E3D
:101B4000010EE66EE1EC17F0036E070EE15E035046
:101B5000140EE66E010EE66E030EE66EE66AE6EC25
:101B600014F0E552E552E552E552310E01013A5DBD
:101B700001E0C9D0300E01013B5D01E0C4D089EC29
:101B80001CF0F3CF00F0F4CF01F000C028F001C04A
:101B900029F0FDEC0EF027C004F128C005F129C0A2
:101BA00006F12AC007F12C6A2D6AA00E2E6E400E97
:101BB0002F6E04C127F005C128F006C129F007C126
:101BC0002AF0FAEC0FF027C000F028C001F029C07D
:101BD00002F02AC003F02C6AC00E2D6E7F0E2E6E0E
:101BE000440E2F6E00C027F001C028F002C029F07B
:101BF00003C02AF0A7EC0FF027C008F128C009F1B4
:101C000029C00AF12AC00BF108C127F009C128F048
:101C10000AC129F00BC12AF003EC11F028C010F121
:101C200029C011F110C128F011C129F0FDEC0EF00E
:101C300027C004F028C005F029C006F02AC007F02C
:101C400004C02CF005C02DF006C02EF007C02FF008
:101C500008C127F009C128F00AC129F00BC12AF0F8
:101C600010EC0FF027C000F028C001F029C002F0EE
:101C70002AC003F02C6A2D6A200E2E6E410E2F6EA4
:101C800000C027F001C028F002C029F003C02AF0EC
:101C9000FAEC0FF003EC11F028C012F129C013F197
:101CA000040E010111AF02D0D89003D0105D000ED8
:101CB000115929E2940EE66E2F0EE66E030EE66EC3
:101CC000E66AA7EC14F0E552E552E552E552820EC1
:101CD000E66E2F0EE66E040EE66EE66AA7EC14F0D2
:101CE000E552E552E552E55289808982640EE66E3E
:101CF00034EC1CF0E5528990A4EC1CF09D94F29811
:101D0000F29EF29E03001200DACFE4FFE2CFDAFF88
:101D1000E9CFE4FFEACFE4FFF6CFE4FFF7CFE4FF3B
:101D2000F5CFE4FFF3CFE4FFF4CFE4FFFACFE4FF15
:101D300000EE20F0140EE80403E3EECFE4FFFBD73F
:101D400000EE00F0200EE80403E3EECFE4FFFBD743
:101D5000E652F2B4D5DCF2B2F2DC9EB0FADC9EB40C
:101D6000FEDC9EBCD9DDE55200EE1FF0200EE8043B
:101D700003E3E5CFEDFFFBD700EE33F0140EE804EC
:101D800003E3E5CFEDFFFBD7E5CFFAFFE5CFF4FFA7
:101D9000E5CFF3FFE5CFF5FFE5CFF7FFE5CFF6FFA2
:101DA000E5CFEAFFE5CFE9FFE5CFDAFF1100FBEC75
:101DB0000EF027C000F028C001F029C002F02AC0B0
:101DC00003F02C6A2D6A1200E66E7EEC1CF0E552E0
:101DD000120027C0ADF028C0AEF029C0AFF02AC075
:101DE000B0F01200D9CFE6FFE1CFD9FF1200E552E3
:061DF000E7CFD9FF12004D
:0A1DF600219E08D0219E29AE05D0E1
:101E0000286C291EE86A2922218E29C023F028C0C7
:101E100022F0336A326A8E0E246E256AACEF11F01E
:101E20002F7E216AE8EC11F000EC12F021B690EF61
:101E300011F021A20AD021AA03D021BE90EF11F007
:101E400021A49CEF11F099EF11F021AA05D021AC4B
:101E50009CEF11F099EF11F021A00AD021A808D031
:101E600021BE04D021A402D0A5EF11F0A9EF11F0FA
:101E7000326A256A2F502A5C316E10E327C033F096
:101E800028C022F029C023F02AC030F02CC027F04F
:101E90002DC028F02EC029F0213A09D02CC033F0F3
:101EA0002DC022F02EC023F02FC030F0316C219EC7
:101EB00021BC218E30C024F021B0D8EF11F01A0ED1
:101EC0003160D8EF11F0246A2A6A21A408D0276C67
:101ED000281E291E2A1EE86A282229222A2221AC2D
:101EE00008D0336C221E231E241EE86A22222322DD
:101EF0002422266A315207E02A3429322832273236
:101F00002632312EF9D72750332628502222295045
:101F100023222A50242226C032F0219E24AE0BD048
:101F2000326C331E221E231E241EE86A3322222214
:101F300023222422218E24A006D0D88023322232CC
:101F400033323232302A30C024F0ACEF11F0216A43
:101F5000E8EC11F000EC12F021B690EF11F021A2A4
:101F600005D021BA90EF11F097EF11F021BAA3EF4D
:101F700011F021A005D021B890EF11F0A3EF11F0DE
:101F800021B897EF11F0256A7F0E2A24246EE86AA3
:101F900025222F50245EE86A255A1A0E306E2A6ACE
:101FA000326A336A226A236A2C50275E2D50285ADF
:101FB0002E50295A000E2A5A09E72C5027262D5058
:101FC00028222E502922000E2A2201D0328AD890AF
:101FD0002736283629362A36D890323633362236F6
:101FE0002336302EE1D7295028102710D8A4328A62
:101FF000ACEF11F0216AE8EC11F000EC12F021B620
:1020000090EF11F021A205D021B890EF11F097EFD9
:1020100011F021AA05D021B090EF11F097EF11F047
:1020200021B002D021A802D0A3EF11F0256A2F50D1
:102030002A24246EE86A25227E0E245EE86A255A48
:10204000326A336A226A236A2E502902F4CF23F0BF
:10205000F3CF22F02D502902F3503326F4502222E0
:10206000000E23222E502802F3503326F450222251
:10207000000E23222C502902F3503226F450332232
:10208000000E222223222D502802F3503226F45033
:102090003322000E222223222E502702F350322612
:1020A000F4503322000E222223222C502802F45016
:1020B0003226000E3322222223222D502702F450F2
:1020C0003226000E332222222322ACEF11F0206AA6
:1020D0002EAE70EF10F02D6C2E1EE86A2E22201E00
:1020E00029AE78EF10F0286C291EE86A2922201EFC
:1020F000F6EC1BF029BE88EF10F020AE000C286C27
:10210000291EE86A2922246C251EE86A2522000C73
:1021100020BE7FEF10F02188FF0C29C033F028C0CB
:1021200032F028502D02F4CF27F0F3CF26F02950BB
:102130002E02F4CF29F0F3CF28F02D02F3502726FA
:10214000F4502822E86A292232502E02F350272622
:10215000F4502822E86A29222EAEB3EF10F0325054
:10216000285E3350295A33AE000C2D50285E2E5075
:10217000295A000C29C033F028C032F027C031F0B2
:1021800027502C02F4CF25F0F3CF24F028502D0255
:10219000F4CF27F0F3CF26F02C02F3502526F4508D
:1021A0002622E86A272231502D02F3502526F450CA
:1021B0002622E86A272229502C02F3502626F450C2
:1021C000272229502D02286AE86A2822F350272660
:1021D000F450282231502E02F3502626F4502722A4
:1021E000296AE86A2822292232502E02F350272633
:1021F000F4502822E86A292233502E02F350282670
:10220000F4502922000C216AE8EC11F021B60DEF00
:1022100011F021A20ED021B405D07F0E296EFF0E41
:10222000286E1FD0800E296E286A1BD0296A286A62
:1022300018D021B0FBD78F0E2A60EDD77E0E2A640E
:10224000F5D78E0E2A5C05E0D890293228322A2A4A
:10225000F8D721A406D0286C291EE86A292229AEC5
:10226000E5D712003BEC11F021B6000C21B0000CB8
:1022700021B4000C010C216AE8EC11F000EC12F022
:1022800021B6120021AE08D021A004D021A802D08E
:1022900021801200219012002F502A5C0BE12E5059
:1022A000295C08E12D50285C05E12C50275C02E1F7
:1022B00021801200D8A002D0218E10D02A502FC029
:1022C0002AF02F6E29502EC029F02E6E28502DC0D6
:1022D00028F02D6E27502CC027F02C6E2F502A5C32
:1022E00010E0FF0F09E0219021B403D021AE21843A
:1022F000120021AE219412002F2AD8902E322D32B6
:102300002C322C50275E2D50285A2E50295A29BE87
:10231000EAD7D8902736283629362A2EF8D7C8D7B4
:102320007F0E2A6EFF0E296E286E276E12007F0E1A
:1023300021BEFF0E2A6E02D07F0E2A6E800E296EFD
:10234000286A276AF3D721AE04D0800E2A6E296A44
:10235000F7D72A6A296AF4D7235022103310321093
:10236000F8E025BEF0D723BE0CD024502510EBE0BA
:10237000D89032363336223623362406D8A02506A6
:10238000F2D72550D4E12428D2E032AE11D07F0E0E
:10239000321402E133A00CD0332AE86A222223222D
:1023A00007E3D880233222323332242A2428BFE0A4
:1023B0002450C9E033C027F022C028F02334296E0E
:1023C00024302A6E29322A9E21BE2A8E96EF11F0E1
:1023D00029362A3602E32184217E06E121802A6AF9
:1023E000296A286A276A12002A2803E0D88029323D
:1023F0001200D890293202E12182120021861200B7
:102400002E362F3602E3218C217E06E121882F6AA9
:102410002E6A2D6A2C6A12002F2803E0D8802E32F3
:0C2420001200D8902E32EAE1218A12004E
:04242C00D9CFE6FF1F
:10243000DACFE6FFE1CFD9FFE2CFDAFF260EE124C3
:1024400002E3E168E652E16ED950050FE1D946ECAE
:1024500016F0006E060EE15C02E2E16AE552E16E02
:102460000050DF6E800EDF5C05E00B0EDB5012E0EB
:10247000DF0410E0210E0001D46FD56B010EDB6884
:10248000020EDB68030EDB687F0EF36E040EF3CFE3
:10249000DBFF8FD1040EDF5C0EE13EDA010EEECFE2
:1024A000DBFF020EEECFDBFF030EEECFDBFF040EF1
:1024B000EECFDBFF7ED1DF0410E1210E0001D46FEF
:1024C000D56B010EDB6A020EDB6A800EF36E030E23
:1024D000F3CFDBFF040EDB686CD1D9500C0F98D919
:1024E000B4EC15F0006E060EE15C02E2E16AE55222
:1024F000E16E0050FA0E26C0DBFFFB0E27C0DBFFAB
:10250000FC0E28C0DBFFFD0E29C0DBFFA6D9F30EB1
:102510002C6E040E2D6E350E2E6E3F0E87D932ECCA
:1025200011F0010A09E1B3D984D910EC0FF067D991
:10253000EDD984D9ACD916D00C0EDB060D0E01E214
:10254000DB068BD92C6A2D6A2E6A3F0E6FD976D99D
:10255000160EDBCF04F0170EDBCF05F0180EDBCF25
:1025600006F0190E66D9FAEC0FF049D9CFD911EC63
:102570000FF01A0E27C0DBFF1B0E28C0DBFF1C0E5E
:1025800029C0DBFF1D0E2AC0DBFF160EDBCF27F0B4
:10259000170EDBCF28F0180EDBCF29F0190EDBCF9A
:1025A0002AF01A0EDBCF2CF01B0EDBCF2DF01C0E09
:1025B000DBCF2EF01D0EDBCF2FF0A7EC0FF01FD9D5
:1025C000120E27C0DBFF130E28C0DBFF140E29C03C
:1025D000DBFF150E2AC0DBFF4DD9120EDBCF2CF02E
:1025E000130EDBCF2DF0140EDBCF2EF0150E62D9BB
:1025F0000E0E27C0DBFF0F0E28C0DBFF100E29C018
:10260000DBFF110E2AC0DBFF3D0EF36E1E0EF3CF73
:10261000DBFF7E0EF36E1F0EF3CFDBFF0D0EF36EAE
:10262000200EF3CFDBFFBF0EF36E210EF3CFDBFFE7
:102630000E0EDBCF00F00F0EDBCF01F0100EDBCF64
:1026400002F0110EDBCF03F03A0E2C6E3F0E2D6E12
:10265000D40E2E6EC00EEAD811EC0FF0220E27C059
:10266000DBFF230E28C0DBFF240E29C0DBFF250E75
:102670002AC0DBFF0E0EDBCF27F00F0EDBCF28F0DA
:10268000100EDBCF29F0110EDBCF2AF01E0EDBCFB0
:102690002CF01F0EDBCF2DF0200EDBCF2EF0210E05
:1026A00009D9220EDBCF2CF0230EDBCF2DF0240E28
:1026B000DBCF2EF0250EDBCF2FF0A7EC0FF007D9E4
:1026C000120EDBCF00F0130EDBCF01F0140EDBCFC8
:1026D00002F0150EDBCF03F0CDD8010EDBCF2CF0CE
:1026E000020EDBCF2DF0030EDBCF2EF0040EE2D86E
:1026F00027C004F028C005F029C006F02AC007F062
:1027000078D8046A800E056E310E066E3F0E076E95
:10271000C9D827C008F028C009F029C00AF02AC08B
:102720000BF0CCD8E1D8FAEC0FF069D8830E146E18
:10273000800E156E5E0E166EB90E176EB3D827C0DA
:1027400018F028C019F029C01AF02AC01BF0B6D81A
:1027500014C027F015C028F016C029F017C02AF0C1
:10276000FAEC0FF027C010F028C011F029C012F0C9
:102770002AC013F0010EDBCF1CF0020EDBCF1DF0E0
:10278000030EDBCF1EF0040EDBCF1FF01CC02CF0BD
:102790001DC02DF01EC02EF01FC02FF011EC0FF049
:1027A00027C00CF028C00DF029C00EF02AC00FF091
:1027B00020D8010EDBCF00F0020EDBCF01F0030EBC
:1027C000DBCF02F0040EDBCF03F000C026F001C027
:1027D00027F002C028F003C029F0260EE15C02E2D7
:1027E000E16AE552E16EE552E5CFDAFFE7CFD9FFC6
:1027F000120064D882D811EC0FF067EF14F027C0F4
:1028000000F028C001F029C002F02AC003F0120035
:10281000E66E000EDA20E66E7FD8EECFE6FFEECF52
:10282000E6FFEECFE6FFEFCFE6FF12002F6E7DEF63
:1028300014F0DBCF07F06AD874EF14F010EC0FF04F
:10284000160E27C0DBFF170E28C0DBFF180E29C0AD
:10285000DBFF190E2AC0DBFF1200FA0EDBCF00F0FF
:10286000FB0EDBCF01F0FC0EDBCF02F0FD0EDBCF69
:1028700003F01200120EDBCF27F0130EDBCF28F08F
:10288000140EDBCF29F0150EDBCF2AF01200FA0E62
:10289000DBCF04F0FB0EDBCF05F0FC0EDBCF06F048
:1028A000FD0E12000C0EDBCF28F00D0EDBCF29F051
:1028B000FDEF0EF0DBCF2FF0FAEF0FF027C02CF07A
:1028C00028C02DF029C02EF02AC02FF01200010ED2
:1028D00027C0DBFF020E28C0DBFF030E29C0DBFF91
:1028E000040E2AC0DBFF120004C027F005C028F048
:1028F00006C029F007C02AF0120000C027F001C06E
:1029000028F002C029F003C02AF012002C6A2D6AB8
:102910002E6A3F0E2F6E1200D950FA0FE96EFF0E8D
:06292000DA20EA6E12004D
:0A2926002B0EE66ED3EC18F0E5521C
:10293000E5D8FEE12B0EFFD8E1D8FEE10F0EFBD863
:10294000DDD8FEE1010EF7D8D9D8FEE11200F8D8A3
:1029500009E1ED5007E1EAD8D1D8FEE1B8D8CED8E8
:1029600031E0FDD7FED8020EEE180AE1ED5008E185
:10297000400ED7D8C3D8FEE1AAD8C0D823E0FDD7EF
:10298000F0D8030EEE180AE1ED5008E1100EC9D898
:10299000B5D8FEE19CD8B2D815E0FDD7E2D8040E38
:1029A000EE180AE1ED5008E1500EBBD8A7D8FEE1C1
:1029B0008ED8A4D807E0FDD7B9D8A0D8FEE1A8D812
:1029C0009DD8FEE1E552E7CFD9FF1200B9D809E161
:1029D000ED5007E1ABD892D8FEE185D88FD831E031
:1029E000FDD7BFD8020EEE180AE1ED5008E1400E07
:1029F00098D884D8FEE177D881D823E0FDD7B1D824
:102A0000030EEE180AE1ED5008E1100E8AD876D8D0
:102A1000FEE169D873D815E0FDD7A3D8040EEE18EF
:102A20000AE1ED5008E1500E7CD868D8FEE15BD891
:102A300065D807E0FDD77AD861D8FEE169D85ED8BD
:102A4000FEE1E552E7CFD9FF1200826A8B6AF40EED
:102A5000946E92909292938093969394836A956ADF
:102A60001200F28AF294F184CF6ACE6A810ECD6EA2
:102A7000930EE66EA8EC1BF0E5521200F288F2927B
:102A8000F18C9D84D08EF28EF28EF28C9E6AD08E66
:102A9000050EBD6E040E9F6E9D8C9F8C9E9C120039
:102AA0009396010EE66EC4EC1BF0E5521E0EE66E28
:102AB000E66AD5EC19F0E552E55212009F0EE66E7B
:102AC000F00EE66E9AEC1AF0E552E5521200FB0E9B
:102AD000DBCF00F0FC0EDBCF01F0026A00C0E6FFA6
:102AE00001C0E6FF36D0FB0EDBCFE6FFFC0EDBCFEE
:102AF000E6FF6BEC1BF0E552E55212000CEC1CF00B
:102B000000091200FD0FE96EFF0EDA20EA6E1200D6
:102B1000B30E006E2F0E016E026A00C0E6FFE66E75
:102B200018D0E66E2EEC1AF0E5521200E66A2EEC92
:102B30001AF0E5521200E66EE1EC1AF0E5521200CE
:102B4000D9CFE6FFE1CFD9FFE150DCDF010EEE186F
:102B5000120002C0E6FF04EC1AF0E552E552E5521D
:082B60001200D95082EF15F0BC
:082B6800D9CFE6FFDACFE6FF4A
:102B7000E1CFD9FFE2CFDAFF0C0EE12402E3E168F6
:102B8000E652E16ED950FA0FE96EFF0EDA20EA6ED6
:102B9000010EEECFDBFF020EEECFDBFF030EEECF1A
:102BA000DBFF040EEECFDBFF63D8D950010FE96ED7
:102BB000000EDA20EA6EEECFE6FFEECFE6FFEECFB4
:102BC000E6FFEFCFE6FF46EC16F0006E060EE15C86
:102BD00002E2E16AE552E16E0050DF6E850EDF141D
:102BE00004E04DD8EE6AED6A23D0090EDBCF00F089
:102BF0000A0EDBCF01F0820E0026FF0E01223FD825
:102C000000C0EEFF01C0EDFF7E0EF36E090EF3CFA4
:102C1000DBFF0A0EDB6AD950010FE66E000EDA20E8
:102C2000E66E26D8D4EC16F0E552E552E552E552B0
:102C3000010EDBCF00F0020EDBCF01F0030EDBCF85
:102C400002F0040EDBCF03F000C026F001C027F035
:102C500002C028F003C029F00C0EE15C02E2E16A38
:102C6000E552E16EE552E5CFDAFFE7CFD9FF12007A
:102C7000D950050FE66E000EDA20E66E1200F80E4F
:0C2C8000DBCFE9FFF90EDBCFEAFF12000A
:042C8C00D9CFE6FFB7
:102C9000DACFE6FFE1CFD9FFE2CFDAFFE6520068F4
:102CA00001687F0E026E036AD950FA0FE96EFF0EBB
:102CB000DA20EA6EEE500016EE500116EE500216C3
:102CC000EE5003166AD800C0EEFF01C0EEFF02C04E
:102CD000EEFF03C0EEFFFD0EDB50800B02E0010EA5
:102CE00001D0000EE66E59D8060EE926000EEA2243
:102CF000E552E750EF6EFC0EDBCF00F0FD0EDBCFB0
:102D000001F0D89000360136FC0E00C0DBFFFD0E4E
:102D100001C0DBFFDB50E66E40D8040EE926000E52
:102D2000EA22E552E750EE6EED6AFD0EDB50006ED2
:102D3000016AFF0E001818E1015016E12ED8EECFFF
:102D400000F0EECF01F0EECF02F0EFCF03F0005035
:102D500001100210031006E0210E0001D46FD56BA4
:102D6000800E0BD0040E09D0FD0EDB5008E115D803
:102D7000EE6AEE6AEE6AEE6A010EDF6E06D0020EB1
:102D8000DF6E0BD8EE52EE52EE8EDF50E552E5527A
:102D9000E5CFDAFFE7CFD9FF1200F80EDBCFE9FF6E
:082DA000F90EDBCFEAFF12007F
:082DA800D9CFE6FFDACFE6FF08
:102DB000E1CFD9FFE2CFDAFF5BD8013411E2005056
:102DC000FE08000E01540CE276D805E06CD8800EA7
:102DD000EE6EEE6847D067D8800EEE6E7F0E0ED096
:102DE00047D8D890015004E6010E005C000E01584F
:102DF0000BE261D805E057D8EE6A800EEE6E32D055
:102E000052D8EE6AEE6A2ED047D8EECF00F0EECF61
:102E100001F0EECF02F0EFCF03F032D800C0EEFFAA
:102E200001C0EEFF02C0EEFF03C0EEFF21D800504C
:102E3000010B05E025D8020E3AD8EF8E04D020D839
:102E4000020E35D8EF9E14D8D8900132003218D82F
:102E5000030E2DD800C0EFFF1AD804E011D8030EDE
:102E600026D8EF8EE552E5CFDAFFE7CFD9FF120083
:102E700013D8040E1CD8EECF00F0EFCF01F01200F3
:102E8000FA0EDBCFE9FFFB0EDBCFEAFF120004D81E
:102E9000060E0DD8EF501200FC0EDBCFE9FFFD0E41
:102EA000DBCFEAFF1200ECDFEE6AEE6A1200E926E1
:102EB000000EEA221200220E0001D46FD56B47EFFC
:022EC00017F009
:0E2EC200432D3E42726F776E4F75742054653B
:102ED000737400422D3E456E747220496E746572A3
:102EE000766C7300412D3E4865616C74682053799F
:102EF0007374656D004772702050726A205075734C
:102F000068202620506F7000507265737320412036
:102F1000746F207361766500456E74657220496E2A
:102F200074657276616C005072657373204600544C
:102F30006F204578697400507265737320420054A5
:102F40006F205374617274002020202020202020E4
:102F500020202020202020202020200054656D707B
:102F60003A202B25642E25303364256343004852D4
:102F7000563A202564250048523A20256420627084
:102F80006D00456E746572696E6720526573742EAC
:102F90002E2E2E00536176696E6720446174612E77
:102FA0002E2E2E004C6576656C3A2564206D672FB9
:102FB000644C004552524F523A206C696E65202392
:012FC0000010
:0E2FC200D9CFE6FFDACFE6FFE1CFD9FFE2CFAD
:102FD000DAFFE652E652E652E652D950F90F006E99
:102FE000FF0EDA20016E020E00C0DBFF030E01C0EF
:102FF000DBFF020EDBCFE6FF030EDBCFE6FFF90EB1
:10300000DBCFE6FFFA0EDBCFE6FFFB0EDBCFE6FF02
:10301000D950FC0FE66EFF0EDA20E66EEDEC04F000
:10302000006E070EE15C02E2E16AE552E16E0050DB
:10303000F3CFDEFFF4CFDDFFFC0EDBCFE9FFFD0EAB
:10304000DBCFEAFFEF6ADECF00F0DDCF01F000C09A
:10305000F3FF01C0F4FF040EE15C02E2E16AE55215
:0E306000E16EE552E5CFDAFFE7CFD9FF1200AF
:02306E00A00EB2
:10307000F66E090EF76E000EF86E00010900F550AD
:10308000CF6F0900F550D06F03E1CF6701D03DD07D
:103090000900F550CA6F0900F550CB6F0900F550D3
:1030A000CC6F09000900F550E96E0900F550EA6E91
:1030B000090009000900F550CD6F0900F550CE6FE9
:1030C00009000900F6CFD1F0F7CFD2F0F8CFD3F056
:1030D000CAC0F6FFCBC0F7FFCCC0F8FF0001CD534C
:1030E00002E1CE5307E00900F550EE6ECD07F8E29D
:1030F000CE07F9D7D1C0F6FFD2C0F7FFD3C0F8FF93
:0C3100000001CF07000ED05BBFD712000B
:04310C00FE0EE3CF01
:10311000E9FFFF0EE3CFEAFFE9CFF3FFEACFF4FFC9
:10312000FB0EE35003E1FC0EE35009E0FB0EE30667
:1031300002E2FC0EE306FD0EE350EE6EF1D7120044
:10314000FE0EE3CFE9FFFF0EE3CFEAFFF36AF46A76
:10315000EE5203E0F34AF42AFBD71200FF0EE3CF4E
:10316000F8FFE552FF0EE3CFF7FFE552FF0EE3CF86
:10317000F6FFE552E66AE66AE66A0900F55209E0FA
:10318000FD0EE32A05E1FE0EE32A02E1FF0EE32A2B
:10319000F4D7FD0EE3CF27F0FE0EE3CF28F0FF0EAD
:0631A000E3CF29F012004C
:0A31A600D9CFE6FFE1CFD9FF0F0EED
:1031B000831695169594959295908C948C928C90FC
:1031C0000DEC00F0300E33D8050EE66EDFEC1BF090
:1031D000E552300E2CD8010EE66EDFEC1BF0E55206
:1031E000320E25D829D8FEE127D8FEE1FE0EDBCF2E
:1031F000E6FFE1EC1AF0E5521FD8FEE1080E17D801
:103200001BD8FEE10F0E13D817D8FEE1010E0FD820
:1032100013D8FEE1130E0BD80FD8FEE1800EE66E38
:103220002EEC1AF0E552E552E7CFD9FF1200E66E18
:10323000E1EC1AF0E55212000CEC1CF0000912004F
:10324000D9CFE6FFDACFE6FFE1CFD9FFE2CFDAFF51
:10325000FB0EDBCF00F0FC0EDBCF01F00001800E97
:1032600001141AE1FB0EDBCFE9FFFC0EDBCFEAFF16
:10327000EECFF3FFEDCFF4FFEE2A000EEF22F3CFF7
:10328000E9FFF4CFEAFFFD0EDBCFEFFFEF50016A5D
:10329000F36E01C0F4FF10D0FB0EDB50FE0806E118
:1032A000FD0EDBCFE6FF62EC1CF005D0FD0EDBCFA0
:1032B000E6FF03EC00F0E552E552E5CFDAFFE7CF99
:0432C000D9FF120020
:0C32C400D9CFE6FFDACFE6FFE1CFD9FF5B
:1032D000E2CFDAFFE652E652E652E652F8CF02F0CB
:1032E000F6CF03F00C0EBA6E050EF66EF76A300ECE
:1032F000F86E0800F550010B03E0010EDB6802D008
:10330000010EDB6A010EDB5002E0949201D093962D
:10331000CA94FD0EDB50CB6ECA8402C0F8FF03C016
:10332000F6FF040EE15C02E2E16AE552E16EE5526D
:0A333000E5CFDAFFE7CFD9FF120066
:06333A0026502B02F3CF28
:1033400022F0F4CF23F02C02F3502326000EF420B9
:10335000246E26502D02F3502426000EF420256EF4
:1033600026502E02F350252627502B02F3502326F9
:10337000F4502422000E252227502C02F35024263C
:10338000F450252227502D02F350252628502B02D9
:10339000F3502426F450252228502C02F3502526E1
:0A33A00029502B02F35025261200DD
:0633AA00D9CFE6FFDACFE7
:1033B000E6FFE1CFD9FFE2CFDAFFE652E652FC0E9C
:1033C000DBCF00F0FD0EDBCF01F0060ED89000360B
:1033D0000136E804FBE100C0DEFF01C0DDFF010EA5
:1033E000DB50BB6EDF50E840E8403F0B300B006E17
:1033F000CF0EBA140010BA6EE552E552E552E5CF91
:08340000DAFFE7CFD9FF12004B
:08340800D9CFE6FFE1CFD9FFA7
:1034100019D814E00CEC1CF00009FCE113D8E66E9E
:10342000BEEC1AF0E552D950FC0FE96EFF0EDA201F
:10343000EA6EEE2A000EEE22EE22EAD7E552E7CF40
:10344000D9FF1200FC0EDBCFF6FFFD0EDBCFF7FF3E
:0C345000FE0EDBCFF8FF0800F550120064
:04345C00D9CFE6FFDF
:10346000E1CFD9FF0F0E95168316FE0EDB508009B3
:10347000F00B83128C948C920ED80F0E8316FE0ED6
:10348000DB38F00BF00B831206D8F00E9512E552E4
:10349000E7CFD9FF120007EC00F08C8007EC00F0BA
:0434A0008C901200FA
:0C34A400D9CFE6FFE1CFD9FF0F0E95163F
:1034B0008316FE0EDB504009F00B83128C948C9225
:1034C0000ED80F0E8316FE0EDB38F00BF00B8312B6
:1034D00006D8F00E9512E552E7CFD9FF120007EC9F
:0C34E00000F08C8007EC00F08C901200D3
:0434EC00256A246ABF
:1034F000236A226A200EE76ED890263627362836B1
:10350000293622362336243625362B50225C2C5081
:1035100023582D5024582E50255809E32B50225E55
:103520002C50235A2D50245A2E50255A262AE72E45
:04353000E4D71200CA
:0C353400D9CFE6FFDACFE6FFE1CFD9FFE8
:10354000E2CFDAFFC26AFD0EDB50C16EFC0EDB502B
:10355000380B006EFD0EDB50040DF350C00B001055
:10356000C26EFC0EDBAE03D09E9C9D8CF28CC280A2
:0C357000E552E5CFDAFFE7CFD9FF1200EB
:04357C00D9CFE6FFBE
:10358000E1CFD9FF0F0E95168316FE0EDB50F00B20
:1035900083128C828C940ED80F0E8316FE0EDB38AD
:1035A000F00BF00B831206D8F00E9512E552E7CF20
:1035B000D9FF120007EC00F08C8007EC00F08C9033
:0235C0001200F7
:0E35C200D9CFE6FFE1CFD9FF0F0E9516831685
:1035D000FE0EDB50F00B83128C948C920ED80F0EE3
:1035E0008316FE0EDB38F00BF00B831206D8F00EBC
:1035F0009512E552E7CFD9FF120007EC00F08C805E
:0836000007EC00F08C901200B1
:08360800D9CFE6FFDACFE6FF9F
:10361000E1CFD9FFE2CFDAFFE652E6520001D691C0
:103620009EB4D681BE50DF6E010EBFCFDBFFDECF72
:1036300000F0DDCF01F000C0F3FF01C0F4FFE55260
:0E364000E552E552E5CFDAFFE7CFD9FF1200E1
:02364E00D9CFD2
:10365000E6FFE1CFD9FFE6528C848C8207EC00F0C4
:103660008C8007EC00F0F00E8314DF6E8C9007EC7A
:1036700000F08C8007EC00F083380F0B0F0BDF128B
:103680008C908C928C94DF50E552E552E7CFD9FFB5
:02369000120026
:0E369200D9CFE6FFE1CFD9FFE6528C848C92AF
:1036A00007EC00F08C8007EC00F0F00E8314DF6E66
:1036B0008C9007EC00F08C8007EC00F083380F0B47
:1036C0000F0BDF128C908C947F0EDF14E552E552C5
:0636D000E7CFD9FF120054
:0A36D600D9CFE6FFE1CFD9FF14D8E9
:1036E0000FE00CEC1CF00009FCE10ED8E66EBEEC1D
:1036F0001AF0E552FD0EDB2AFE0EF1E3DB2AEFD7CE
:10370000E552E7CFD9FF1200FD0EDBCFE9FFFE0E39
:08371000DBCFEAFFEF501200CD
:08371800D9CFE6FFDACFE6FF8E
:10372000E1CFD9FFE2CFDAFFE652E652FC0EDBCF63
:10373000DEFFDBCFDDFF010EDB50D76EDF50D66E34
:10374000E552E552E552E5CFDAFFE7CFD9FF1200A7
:10375000D9CFE6FFDACFE6FFE1CFD9FFE2CFDAFF3C
:10376000FD0EDB507F0BD56ED76AD66AF294FD0E44
:10377000DBAE02D0F28A01D0F29AD58EE552E5CFC7
:08378000DAFFE7CFD9FF1200C8
:08378800D9CFE6FFDACFE6FF1E
:10379000E1CFD9FFE2CFDAFFFD0EDB50FB0BCA6EA3
:1037A000CC6A9E92FD0EDBAE02D09D8201D09D922E
:0E37B000CA84E552E5CFDAFFE7CFD9FF120059
:0237BE00FF0EFC
:1037C000E350356EEF0E01D0F30EE76EE72EE6EF15
:1037D0001BF00C0E346EE76AE72EECEF1BF0342E74
:0C37E000EBEF1BF0352EE4EF1BF01200A5
:0437EC00256A246ABC
:1037F000100EE76ED89028362936243625362D50FF
:10380000245C2E50255805E32D50245E2E50255A59
:08381000282AE72EF0D7120070
:083818008C848C9207EC00F097
:103820008C8007EC00F083AE02D003D8010C01D8E5
:10383000000C8C9007EC00F08C8007EC00F08C9072
:043840008C94120052
:0C384400F36AF46AFF0EE124E96EFF0E47
:10385000E220EA6EED6607D02F0EEF6404D03A0E38
:08386000EF6001D0F32A120011
:08386800FF0EE350356E480E1F
:1038700001D04C0EE76EE72EFED7E76AE72EFED7A3
:08388000352EF7D700001200FD
:08388800000EF36E00EE00F0EB
:10389000060E01D81200EA6002D0EE6AFCD7F3509F
:0838A000E9601200EE6AFCD79A
:0838A80015EE00F025EE00F022
:1038B000F86A219C37EC18F0A9EC1CF038EC03F006
:0438C000FBD7120020
:0C38C400FF0EE350ACBA04D0AF6AAB8E2C
:1038D000AC8A949CACA2FED7AD6EF36EF46A120073
:1038E000FF0EE350356E1B0E00D001D0200EE76EA8
:0C38F000E72EFED7352EFAD700D01200CC
:0438FC00FF0EE35088
:10390000E84E1200000000D000D000D0E82EFAD718
:023910001200A3
:0E391200C450036E026AC3500210F36E03C06D
:04392000F4FF12009E
:0C392400303132333435363738396162C7
:05393000636465660000
:06393600CD909D901200EF
:04393C00D59EF29A88
:02394000120073
:063942009D94BD6A120015
:06394800C2909D9C1200DC
:02394E00C28431
:02395000120063
:02395200120061
:0C395400313233413435364237383943C4
:1039600030464544FF000000000000000000000059
:103970000000000000000000000000000000000047
:103980000000000000C400C40001000100DF0000CE
:0E399000000000000000000000000000000029
:020000040030CA
:0100010022DC
:010003000EEE
:0100050000FA
:010006008178
:00000001FF
